S0100000426C696E6B4C65642E737265630F
S11300000C942A000C9434000C9434000C943400A6
S11300100C9434000C9434000C9434000C9434008C
S11300200C9434000C9434000C9434000C9434007C
S11300300C9434000C9434000C9434000C9434006C
S11300400C9434000C9434000C9434000C9434005C
S11300500C94340011241FBECFE5D4E0DEBFCDBF25
S11300600E9436000C9443000C9400008E9A9698DB
S113007090E482B3892782BBE7EAF1E63197F1F78E
S10D008000C00000F6CFF894FFCF93
S9030000FC
